S019000044656275672F666C6970666C6F705F6972712E733139BE
S315200000000248854600F058F8FEE7C04600C00120A9
S3152000001080B500AF064B1B685A1C054B1A60054B72
S315200000201A68044B08210A431A60C046BD4680BDA3
S31520000030D4000020143C014080B500AF164B174A6F
S315200000401A60174B00229B5E154A1B051B0D1BB21F
S315200000501380134B00229B5E11498022D201134349
S315200000601BB20B800F4B1A680E4B08210A431A60ED
S315200000700D4B1A680C4B08210A431A600B4B1A6861
S315200000800A4B802189000A431A60094B094A1A60E3
S31520000090C046BD4680BDC046000C024055550000F6
S315200000A008380140003C0140083C014000E100E0E6
S315200000B064C001201100002080B500AFFFF7BCFF0F
S315200000C0024B1A68024BD2B21A70F9E7D40000200C
S30D200000D0140C024000000000A0
S70520000000DA
