S018000044656275672F7379737469636B5F6972712E73313911
S315200000000248854600F074F8FEE7C04600C001208D
S31520000010EFF303807047C046180080F303887047CB
S31520000020C04680B500AF074B00221A60064BA722B8
S315200000301A60064B00221A60024B07221A60C0463D
S31520000040BD4680BD10E000E014E000E018E000E0CE
S3152000005080B582B000AF78607B68002B08D07A68C4
S31520000060054B1A60054B00221A60FFF7DAFF00E005
S31520000070C046BD4602B080BD3401002030010020BC
S3152000008080B500AF0A4B00221A600A4B1B685A1E25
S31520000090084B1A60074B1B68002B02DDFFF7C1FFD8
S315200000A002E0054B01221A60C046BD4680BDC0460F
S315200000B010E000E0340100203001002080B500AFC0
S315200000C0054B064A1A60064B064A1A60064B074A33
S315200000D01A60C046BD4680BD000C02405555555598
S315200000E008ED00E000C001203CC001208100002076
S315200000F080B500AFFFF7E2FF0A4B00221A700A4BC9
S315200001001800FFF7A5FF074BFF221A70074B1B6845
S31520000110002B00D1FAE7C046024B00221A70C046D7
S31520000120BD4680BD140C024010270000300100207F
S30D200001300000000000000000A1
S70520000000DA
