S01D000044656275672F666C6970666C6F705F6972715F61636B2E7331392C
S315200000000248854600F0A0F8FEE7C04600C0012061
S3152000001080B500AF254B1A68244B08210A431A6085
S31520000020234B1B78DBB21A00012313400DD0204B43
S315200000301B78DBB21E4A10210B43DBB213701D4B1B
S315200000401B685A1C1B4B1A602DE0194B1B78DBB220
S315200000501A00022313400BD0154B1B78DBB2144A2F
S3152000006020210B43DBB21370124B00221A601AE0D8
S315200000700F4B1B78DBB21A000423134010D00C4B15
S315200000801B78DBB20A4A40210B43DBB213700A4BC2
S315200000901B78DBB2002B06D0074B00221A7002E039
S315200000A0054BFF221A70C046BD4680BD143C014058
S315200000B01010024064010020140C024080B500AFED
S315200000C0174B184A1A60184B184A1A60184B002208
S315200000D09B5E174A1B051B0D1BB21380144B002277
S315200000E09B5E13498022D20113431BB20B80114B16
S315200000F01A68104B08210A431A600F4B1A680E4BD8
S3152000010008210A431A600D4B1A680C4B802189007E
S315200001100A431A600A4B0B4A1A60C046BD4680BD88
S31520000120000C024055550000001002400055555560
S3152000013008380140003C0140083C014000E100E055
S3152000014064C001201100002080B500AFFFF7B6FF84
S31520000150024B1A68024BD2B21A70F9E764010020EA
S30D20000160140C0240000000000F
S70520000000DA
