S01D000044656275672F666C6970666C6F705F6972715F61636B2E7331392C
S315200000000248854600F0AAF8FEE7C04600C0012057
S3152000001080B500AF284B1A68274B08210A431A607F
S31520000020264B1B78DBB21A00012313400DD0234B3D
S315200000301B78DBB2214A10210B43DBB21370204B15
S315200000401B685A1C1E4B1A6033E01C4B1B78DBB214
S315200000501A00022313400BD0184B1B78DBB2174A29
S3152000006020210B43DBB21370154B00221A6020E0CF
S31520000070124B1B78DBB21A000423134016D00F4B09
S315200000801B78DBB20D4A40210B43DBB213700D4BBC
S3152000009000221A600C4B1B78DBB2002B02D00A4BD5
S315200000A000221A70074B094A1A6002E0064BFF220B
S315200000B01A70C046BD4680BD143C01401010024057
S315200000C078010020000C0240140C02405555000017
S315200000D080B500AF174B184A1A60184B184A1A6099
S315200000E0184B00229B5E174A1B051B0D1BB2138063
S315200000F0144B00229B5E13498022D20113431BB26C
S315200001000B80114B1A68104B08210A431A600F4BBB
S315200001101A680E4B08210A431A600D4B1A680C4BBD
S31520000120802189000A431A600A4B0B4A1A60C0468E
S31520000130BD4680BD000C024055550000001002400F
S315200001400055555508380140003C0140083C014007
S3152000015000E100E064C001201100002080B500AF5E
S31520000160FFF7B6FF024B1A68024BD2B21A70F9E7B4
S3112000017078010020140C02400000000062
S70520000000DA
